{
  "_format": "hh-sol-artifact-1",
  "contractName": "Carbon",
  "sourceName": "contracts/Carbon.sol",
  "abi": [
    {
      "inputs": [
        {
          "internalType": "address",
          "name": "_governer",
          "type": "address"
        }
      ],
      "stateMutability": "nonpayable",
      "type": "constructor"
    },
    {
      "anonymous": false,
      "inputs": [
        {
          "indexed": false,
          "internalType": "uint256",
          "name": "amount",
          "type": "uint256"
        }
      ],
      "name": "CarbonClaim",
      "type": "event"
    },
    {
      "anonymous": false,
      "inputs": [
        {
          "indexed": false,
          "internalType": "uint256",
          "name": "amount",
          "type": "uint256"
        }
      ],
      "name": "CarbonUse",
      "type": "event"
    },
    {
      "anonymous": false,
      "inputs": [
        {
          "indexed": false,
          "internalType": "uint256",
          "name": "supply",
          "type": "uint256"
        }
      ],
      "name": "NewCarbonSeason",
      "type": "event"
    },
    {
      "anonymous": false,
      "inputs": [
        {
          "indexed": false,
          "internalType": "uint256",
          "name": "index",
          "type": "uint256"
        },
        {
          "indexed": false,
          "internalType": "address",
          "name": "buyer",
          "type": "address"
        },
        {
          "indexed": false,
          "internalType": "address",
          "name": "from",
          "type": "address"
        },
        {
          "indexed": false,
          "internalType": "uint256",
          "name": "amount",
          "type": "uint256"
        }
      ],
      "name": "OrderBuy",
      "type": "event"
    },
    {
      "anonymous": false,
      "inputs": [
        {
          "indexed": false,
          "internalType": "uint256",
          "name": "index",
          "type": "uint256"
        },
        {
          "indexed": false,
          "internalType": "address",
          "name": "from",
          "type": "address"
        }
      ],
      "name": "OrderCancel",
      "type": "event"
    },
    {
      "anonymous": false,
      "inputs": [
        {
          "indexed": false,
          "internalType": "uint256",
          "name": "amount",
          "type": "uint256"
        }
      ],
      "name": "OrderMake",
      "type": "event"
    },
    {
      "anonymous": false,
      "inputs": [
        {
          "indexed": false,
          "internalType": "address",
          "name": "company",
          "type": "address"
        },
        {
          "indexed": false,
          "internalType": "int256",
          "name": "quota",
          "type": "int256"
        }
      ],
      "name": "UploadCertificate",
      "type": "event"
    },
    {
      "inputs": [],
      "name": "GetOrders",
      "outputs": [
        {
          "components": [
            {
              "internalType": "address",
              "name": "from",
              "type": "address"
            },
            {
              "internalType": "uint256",
              "name": "amount",
              "type": "uint256"
            },
            {
              "internalType": "address",
              "name": "to",
              "type": "address"
            },
            {
              "internalType": "bool",
              "name": "onSale",
              "type": "bool"
            }
          ],
          "internalType": "struct SwapOrder[]",
          "name": "",
          "type": "tuple[]"
        }
      ],
      "stateMutability": "view",
      "type": "function"
    },
    {
      "inputs": [
        {
          "internalType": "address[]",
          "name": "_issuers",
          "type": "address[]"
        }
      ],
      "name": "addIssurers",
      "outputs": [],
      "stateMutability": "nonpayable",
      "type": "function"
    },
    {
      "inputs": [
        {
          "internalType": "uint256",
          "name": "index",
          "type": "uint256"
        }
      ],
      "name": "buyCarbon",
      "outputs": [],
      "stateMutability": "nonpayable",
      "type": "function"
    },
    {
      "inputs": [
        {
          "internalType": "uint256",
          "name": "index",
          "type": "uint256"
        }
      ],
      "name": "cancelOrder",
      "outputs": [],
      "stateMutability": "nonpayable",
      "type": "function"
    },
    {
      "inputs": [
        {
          "internalType": "uint256",
          "name": "",
          "type": "uint256"
        }
      ],
      "name": "carbonLedger",
      "outputs": [
        {
          "internalType": "uint256",
          "name": "startBlock",
          "type": "uint256"
        },
        {
          "internalType": "uint256",
          "name": "totalSupply",
          "type": "uint256"
        },
        {
          "internalType": "uint256",
          "name": "totalUsed",
          "type": "uint256"
        }
      ],
      "stateMutability": "view",
      "type": "function"
    },
    {
      "inputs": [],
      "name": "carbonSeason",
      "outputs": [
        {
          "internalType": "uint256",
          "name": "startBlock",
          "type": "uint256"
        },
        {
          "internalType": "uint256",
          "name": "totalSupply",
          "type": "uint256"
        },
        {
          "internalType": "uint256",
          "name": "totalUsed",
          "type": "uint256"
        }
      ],
      "stateMutability": "view",
      "type": "function"
    },
    {
      "inputs": [
        {
          "internalType": "uint256",
          "name": "amount",
          "type": "uint256"
        }
      ],
      "name": "claimCarbon",
      "outputs": [],
      "stateMutability": "nonpayable",
      "type": "function"
    },
    {
      "inputs": [
        {
          "internalType": "uint256",
          "name": "",
          "type": "uint256"
        }
      ],
      "name": "companies",
      "outputs": [
        {
          "internalType": "address",
          "name": "",
          "type": "address"
        }
      ],
      "stateMutability": "view",
      "type": "function"
    },
    {
      "inputs": [
        {
          "internalType": "address",
          "name": "",
          "type": "address"
        },
        {
          "internalType": "uint256",
          "name": "",
          "type": "uint256"
        }
      ],
      "name": "companyCertificate",
      "outputs": [
        {
          "internalType": "address",
          "name": "issuer",
          "type": "address"
        },
        {
          "internalType": "string",
          "name": "ipfs",
          "type": "string"
        },
        {
          "internalType": "int256",
          "name": "quota",
          "type": "int256"
        }
      ],
      "stateMutability": "view",
      "type": "function"
    },
    {
      "inputs": [
        {
          "internalType": "address",
          "name": "",
          "type": "address"
        }
      ],
      "name": "companyQuota",
      "outputs": [
        {
          "internalType": "uint256",
          "name": "",
          "type": "uint256"
        }
      ],
      "stateMutability": "view",
      "type": "function"
    },
    {
      "inputs": [
        {
          "internalType": "address",
          "name": "",
          "type": "address"
        }
      ],
      "name": "companyScore",
      "outputs": [
        {
          "internalType": "int256",
          "name": "",
          "type": "int256"
        }
      ],
      "stateMutability": "view",
      "type": "function"
    },
    {
      "inputs": [
        {
          "internalType": "address",
          "name": "",
          "type": "address"
        }
      ],
      "name": "companySeasonCarbon",
      "outputs": [
        {
          "internalType": "uint256",
          "name": "claimed",
          "type": "uint256"
        },
        {
          "internalType": "uint256",
          "name": "used",
          "type": "uint256"
        },
        {
          "internalType": "uint256",
          "name": "buyed",
          "type": "uint256"
        },
        {
          "internalType": "uint256",
          "name": "locked",
          "type": "uint256"
        }
      ],
      "stateMutability": "view",
      "type": "function"
    },
    {
      "inputs": [],
      "name": "governer",
      "outputs": [
        {
          "internalType": "address",
          "name": "",
          "type": "address"
        }
      ],
      "stateMutability": "view",
      "type": "function"
    },
    {
      "inputs": [
        {
          "internalType": "address",
          "name": "",
          "type": "address"
        }
      ],
      "name": "isIssuer",
      "outputs": [
        {
          "internalType": "bool",
          "name": "",
          "type": "bool"
        }
      ],
      "stateMutability": "view",
      "type": "function"
    },
    {
      "inputs": [
        {
          "internalType": "uint256",
          "name": "",
          "type": "uint256"
        }
      ],
      "name": "issuers",
      "outputs": [
        {
          "internalType": "address",
          "name": "",
          "type": "address"
        }
      ],
      "stateMutability": "view",
      "type": "function"
    },
    {
      "inputs": [
        {
          "internalType": "uint256",
          "name": "amount",
          "type": "uint256"
        }
      ],
      "name": "makeOrder",
      "outputs": [],
      "stateMutability": "nonpayable",
      "type": "function"
    },
    {
      "inputs": [
        {
          "internalType": "uint256",
          "name": "_supply",
          "type": "uint256"
        }
      ],
      "name": "newCarbonSeason",
      "outputs": [],
      "stateMutability": "nonpayable",
      "type": "function"
    },
    {
      "inputs": [
        {
          "internalType": "uint256",
          "name": "",
          "type": "uint256"
        }
      ],
      "name": "swapOrders",
      "outputs": [
        {
          "internalType": "address",
          "name": "from",
          "type": "address"
        },
        {
          "internalType": "uint256",
          "name": "amount",
          "type": "uint256"
        },
        {
          "internalType": "address",
          "name": "to",
          "type": "address"
        },
        {
          "internalType": "bool",
          "name": "onSale",
          "type": "bool"
        }
      ],
      "stateMutability": "view",
      "type": "function"
    },
    {
      "inputs": [
        {
          "internalType": "address",
          "name": "company",
          "type": "address"
        },
        {
          "internalType": "int256",
          "name": "quota",
          "type": "int256"
        },
        {
          "internalType": "string",
          "name": "ipfs",
          "type": "string"
        }
      ],
      "name": "uploadCertificate",
      "outputs": [],
      "stateMutability": "nonpayable",
      "type": "function"
    },
    {
      "inputs": [
        {
          "internalType": "uint256",
          "name": "amount",
          "type": "uint256"
        }
      ],
      "name": "useCarbon",
      "outputs": [],
      "stateMutability": "nonpayable",
      "type": "function"
    }
  ],
  "bytecode": "0x60806040523480156200001157600080fd5b506040516200303438038062003034833981810160405281019062000037919062000095565b806000806101000a81548173ffffffffffffffffffffffffffffffffffffffff021916908373ffffffffffffffffffffffffffffffffffffffff160217905550506200010f565b6000815190506200008f81620000f5565b92915050565b600060208284031215620000a857600080fd5b6000620000b8848285016200007e565b91505092915050565b6000620000ce82620000d5565b9050919050565b600073ffffffffffffffffffffffffffffffffffffffff82169050919050565b6200010081620000c1565b81146200010c57600080fd5b50565b612f15806200011f6000396000f3fe608060405234801561001057600080fd5b506004361061012c5760003560e01c80636132995c116100ad578063877b9a6711610071578063877b9a67146103455780639705091514610375578063a20028b614610391578063b15db81f146103c1578063c1ac51b8146103f45761012c565b80636132995c1461028b57806361ec30c4146102a75780636879a61d146102d75780637cda23d814610309578063821009ff146103295761012c565b80634d6ddc67116100f45780634d6ddc67146101e75780634f4708d014610219578063507c0e7514610237578063514fcac7146102535780635bdf899b1461026f5761012c565b80630234ad3d146101315780631f0cbfb91461014d5780632813d19d146101695780633091dde11461019957806337cb339e146101b7575b600080fd5b61014b600480360381019061014691906122e9565b610427565b005b610167600480360381019061016291906122e9565b61061b565b005b610183600480360381019061017e91906122e9565b6108f5565b60405161019091906125dd565b60405180910390f35b6101a1610934565b6040516101ae91906125dd565b60405180910390f35b6101d160048036038101906101cc91906121d3565b610958565b6040516101de919061283c565b60405180910390f35b61020160048036038101906101fc91906122e9565b610970565b604051610210939291906128c5565b60405180910390f35b6102216109aa565b60405161022e91906126a4565b60405180910390f35b610251600480360381019061024c91906121fc565b610ada565b005b61026d600480360381019061026891906122e9565b610ec1565b005b610289600480360381019061028491906122e9565b611134565b005b6102a560048036038101906102a091906122e9565b6112ed565b005b6102c160048036038101906102bc91906122e9565b6117b6565b6040516102ce91906125dd565b60405180910390f35b6102f160048036038101906102ec9190612268565b6117f5565b60405161030093929190612621565b60405180910390f35b6103116118e4565b604051610320939291906128c5565b60405180910390f35b610343600480360381019061033e91906122e9565b6118fc565b005b61035f600480360381019061035a91906121d3565b611aef565b60405161036c91906126c6565b60405180910390f35b61038f600480360381019061038a91906122a4565b611b0f565b005b6103ab60048036038101906103a691906121d3565b611d18565b6040516103b891906126e1565b60405180910390f35b6103db60048036038101906103d691906122e9565b611d30565b6040516103eb949392919061265f565b60405180910390f35b61040e600480360381019061040991906121d3565b611dbd565b60405161041e94939291906128fc565b60405180910390f35b806001600201546104389190612a2a565b6001800154101561047e576040517f08c379a00000000000000000000000000000000000000000000000000000000081526004016104759061281c565b60405180910390fd5b80600a60003373ffffffffffffffffffffffffffffffffffffffff1673ffffffffffffffffffffffffffffffffffffffff168152602001908152602001600020600001546104cc9190612a2a565b600960003373ffffffffffffffffffffffffffffffffffffffff1673ffffffffffffffffffffffffffffffffffffffff16815260200190815260200160002054101561054d576040517f08c379a00000000000000000000000000000000000000000000000000000000081526004016105449061275c565b60405180910390fd5b80600a60003373ffffffffffffffffffffffffffffffffffffffff1673ffffffffffffffffffffffffffffffffffffffff1681526020019081526020016000206000015461059b9190612a2a565b600a60003373ffffffffffffffffffffffffffffffffffffffff1673ffffffffffffffffffffffffffffffffffffffff168152602001908152602001600020600001819055507f4dba5939b7eb40be7d9faf059652264e2c1e64d9461e7b009920f27895dad27681604051610610919061283c565b60405180910390a150565b6000600a60003373ffffffffffffffffffffffffffffffffffffffff1673ffffffffffffffffffffffffffffffffffffffff168152602001908152602001600020604051806080016040529081600082015481526020016001820154815260200160028201548152602001600382015481525050905060008160600151146106d8576040517f08c379a00000000000000000000000000000000000000000000000000000000081526004016106cf906127dc565b60405180910390fd5b8181602001516106e89190612a2a565b816040015182600001516106fc9190612a2a565b101561073d576040517f08c379a0000000000000000000000000000000000000000000000000000000008152600401610734906127fc565b60405180910390fd5b81600a60003373ffffffffffffffffffffffffffffffffffffffff1673ffffffffffffffffffffffffffffffffffffffff16815260200190815260200160002060030181905550600c60405180608001604052803373ffffffffffffffffffffffffffffffffffffffff168152602001848152602001600073ffffffffffffffffffffffffffffffffffffffff16815260200160011515815250908060018154018082558091505060019003906000526020600020906003020160009091909190915060008201518160000160006101000a81548173ffffffffffffffffffffffffffffffffffffffff021916908373ffffffffffffffffffffffffffffffffffffffff1602179055506020820151816001015560408201518160020160006101000a81548173ffffffffffffffffffffffffffffffffffffffff021916908373ffffffffffffffffffffffffffffffffffffffff16021790555060608201518160020160146101000a81548160ff02191690831515021790555050507f0349b965b787bb402962fda74526f942a0f211522e0e6b1158e9c3e9b541628d826040516108e9919061283c565b60405180910390a15050565b6007818154811061090557600080fd5b906000526020600020016000915054906101000a900473ffffffffffffffffffffffffffffffffffffffff1681565b60008054906101000a900473ffffffffffffffffffffffffffffffffffffffff1681565b60096020528060005260406000206000915090505481565b6004818154811061098057600080fd5b90600052602060002090600302016000915090508060000154908060010154908060020154905083565b6060600c805480602002602001604051908101604052809291908181526020016000905b82821015610ad157838290600052602060002090600302016040518060800160405290816000820160009054906101000a900473ffffffffffffffffffffffffffffffffffffffff1673ffffffffffffffffffffffffffffffffffffffff1673ffffffffffffffffffffffffffffffffffffffff168152602001600182015481526020016002820160009054906101000a900473ffffffffffffffffffffffffffffffffffffffff1673ffffffffffffffffffffffffffffffffffffffff1673ffffffffffffffffffffffffffffffffffffffff1681526020016002820160149054906101000a900460ff161515151581525050815260200190600101906109ce565b50505050905090565b60011515600660003373ffffffffffffffffffffffffffffffffffffffff1673ffffffffffffffffffffffffffffffffffffffff16815260200190815260200160002060009054906101000a900460ff16151514610b6d576040517f08c379a0000000000000000000000000000000000000000000000000000000008152600401610b64906127bc565b60405180910390fd5b6000600960008673ffffffffffffffffffffffffffffffffffffffff1673ffffffffffffffffffffffffffffffffffffffff1681526020019081526020016000205490506000841215610ca55760008482610bc89190612a80565b1215610c09576040517f08c379a0000000000000000000000000000000000000000000000000000000008152600401610c009061273c565b60405180910390fd5b83610c1390612c48565b600960008773ffffffffffffffffffffffffffffffffffffffff1673ffffffffffffffffffffffffffffffffffffffff16815260200190815260200160002054610c5d9190612b14565b600960008773ffffffffffffffffffffffffffffffffffffffff1673ffffffffffffffffffffffffffffffffffffffff16815260200190815260200160002081905550610d34565b83600960008773ffffffffffffffffffffffffffffffffffffffff1673ffffffffffffffffffffffffffffffffffffffff16815260200190815260200160002054610cf09190612a2a565b600960008773ffffffffffffffffffffffffffffffffffffffff1673ffffffffffffffffffffffffffffffffffffffff168152602001908152602001600020819055505b600860008673ffffffffffffffffffffffffffffffffffffffff1673ffffffffffffffffffffffffffffffffffffffff16815260200190815260200160002060405180606001604052803373ffffffffffffffffffffffffffffffffffffffff16815260200185858080601f016020809104026020016040519081016040528093929190818152602001838380828437600081840152601f19601f82011690508083019250505050505050815260200186815250908060018154018082558091505060019003906000526020600020906003020160009091909190915060008201518160000160006101000a81548173ffffffffffffffffffffffffffffffffffffffff021916908373ffffffffffffffffffffffffffffffffffffffff1602179055506020820151816001019080519060200190610e74929190611fb8565b506040820151816002015550507fdf802ac7cfdb978d7f47a9fdeed794b5d31d3bf932ca036a2bbffbd39893c4228585604051610eb29291906125f8565b60405180910390a15050505050565b80600c8054905011610f08576040517f08c379a0000000000000000000000000000000000000000000000000000000008152600401610eff9061277c565b60405180910390fd5b3373ffffffffffffffffffffffffffffffffffffffff16600c8281548110610f59577f4e487b7100000000000000000000000000000000000000000000000000000000600052603260045260246000fd5b906000526020600020906003020160000160009054906101000a900473ffffffffffffffffffffffffffffffffffffffff1673ffffffffffffffffffffffffffffffffffffffff1614610fe1576040517f08c379a0000000000000000000000000000000000000000000000000000000008152600401610fd8906126fc565b60405180910390fd5b6000600c828154811061101d577f4e487b7100000000000000000000000000000000000000000000000000000000600052603260045260246000fd5b906000526020600020906003020160020160146101000a81548160ff0219169083151502179055506000600a6000600c8481548110611085577f4e487b7100000000000000000000000000000000000000000000000000000000600052603260045260246000fd5b906000526020600020906003020160000160009054906101000a900473ffffffffffffffffffffffffffffffffffffffff1673ffffffffffffffffffffffffffffffffffffffff1673ffffffffffffffffffffffffffffffffffffffff168152602001908152602001600020600301819055507fa7157b173bd4882cdd607e667f91a15f6cc6de5f0320c0e6073f8505dabac0878133604051611129929190612857565b60405180910390a150565b6000600a60003373ffffffffffffffffffffffffffffffffffffffff1673ffffffffffffffffffffffffffffffffffffffff168152602001908152602001600020604051806080016040529081600082015481526020016001820154815260200160028201548152602001600382015481525050905081816060015182602001516111bf9190612a2a565b6111c99190612a2a565b816040015182600001516111dd9190612a2a565b101561121e576040517f08c379a0000000000000000000000000000000000000000000000000000000008152600401611215906127fc565b60405180910390fd5b81600a60003373ffffffffffffffffffffffffffffffffffffffff1673ffffffffffffffffffffffffffffffffffffffff1681526020019081526020016000206001015461126c9190612a2a565b600a60003373ffffffffffffffffffffffffffffffffffffffff1673ffffffffffffffffffffffffffffffffffffffff168152602001908152602001600020600101819055507ffd3359c4b85598d61bc4d4b20d8cd4e6faeab72cdfb81107e14bd57384e1700c826040516112e1919061283c565b60405180910390a15050565b80600c8054905011611334576040517f08c379a000000000000000000000000000000000000000000000000000000000815260040161132b9061277c565b60405180910390fd5b60011515600c8281548110611372577f4e487b7100000000000000000000000000000000000000000000000000000000600052603260045260246000fd5b906000526020600020906003020160020160149054906101000a900460ff161515146113d3576040517f08c379a00000000000000000000000000000000000000000000000000000000081526004016113ca9061279c565b60405180910390fd5b33600c828154811061140e577f4e487b7100000000000000000000000000000000000000000000000000000000600052603260045260246000fd5b906000526020600020906003020160020160006101000a81548173ffffffffffffffffffffffffffffffffffffffff021916908373ffffffffffffffffffffffffffffffffffffffff1602179055506000600c8281548110611499577f4e487b7100000000000000000000000000000000000000000000000000000000600052603260045260246000fd5b906000526020600020906003020160020160146101000a81548160ff0219169083151502179055506000600c82815481106114fd577f4e487b7100000000000000000000000000000000000000000000000000000000600052603260045260246000fd5b90600052602060002090600302016040518060800160405290816000820160009054906101000a900473ffffffffffffffffffffffffffffffffffffffff1673ffffffffffffffffffffffffffffffffffffffff1673ffffffffffffffffffffffffffffffffffffffff168152602001600182015481526020016002820160009054906101000a900473ffffffffffffffffffffffffffffffffffffffff1673ffffffffffffffffffffffffffffffffffffffff1673ffffffffffffffffffffffffffffffffffffffff1681526020016002820160149054906101000a900460ff16151515158152505090506000600a6000836000015173ffffffffffffffffffffffffffffffffffffffff1673ffffffffffffffffffffffffffffffffffffffff168152602001908152602001600020600301819055508060200151600a6000836000015173ffffffffffffffffffffffffffffffffffffffff1673ffffffffffffffffffffffffffffffffffffffff1681526020019081526020016000206001015461168b9190612a2a565b600a6000836000015173ffffffffffffffffffffffffffffffffffffffff1673ffffffffffffffffffffffffffffffffffffffff168152602001908152602001600020600101819055508060200151600a60003373ffffffffffffffffffffffffffffffffffffffff1673ffffffffffffffffffffffffffffffffffffffff168152602001908152602001600020600201546117279190612a2a565b600a60003373ffffffffffffffffffffffffffffffffffffffff1673ffffffffffffffffffffffffffffffffffffffff168152602001908152602001600020600201819055507f91530e6deb3c550886a443c8a1b62324aece0e505e3c9c7780b9bfb7343f71338233836000015184602001516040516117aa9493929190612880565b60405180910390a15050565b600581815481106117c657600080fd5b906000526020600020016000915054906101000a900473ffffffffffffffffffffffffffffffffffffffff1681565b6008602052816000526040600020818154811061181157600080fd5b9060005260206000209060030201600091509150508060000160009054906101000a900473ffffffffffffffffffffffffffffffffffffffff169080600101805461185b90612bcd565b80601f016020809104026020016040519081016040528092919081815260200182805461188790612bcd565b80156118d45780601f106118a9576101008083540402835291602001916118d4565b820191906000526020600020905b8154815290600101906020018083116118b757829003601f168201915b5050505050908060020154905083565b60018060000154908060010154908060020154905083565b60008054906101000a900473ffffffffffffffffffffffffffffffffffffffff1673ffffffffffffffffffffffffffffffffffffffff163373ffffffffffffffffffffffffffffffffffffffff161461198a576040517f08c379a00000000000000000000000000000000000000000000000000000000081526004016119819061271c565b60405180910390fd5b60005b600780549050811015611a1a57611a07600782815481106119d7577f4e487b7100000000000000000000000000000000000000000000000000000000600052603260045260246000fd5b9060005260206000200160009054906101000a900473ffffffffffffffffffffffffffffffffffffffff16611ded565b8080611a1290612bff565b91505061198d565b50600c6000611a29919061203e565b60046001908060018154018082558091505060019003906000526020600020906003020160009091909190915060008201548160000155600182015481600101556002820154816002015550506040518060600160405280438152602001828152602001600081525060016000820151816000015560208201518160010155604082015181600201559050507f0c040c1f19ab870b31ec99f370bc8080c1a51f2ab7d65a540e3d4e1548465da881604051611ae4919061283c565b60405180910390a150565b60066020528060005260406000206000915054906101000a900460ff1681565b60008054906101000a900473ffffffffffffffffffffffffffffffffffffffff1673ffffffffffffffffffffffffffffffffffffffff163373ffffffffffffffffffffffffffffffffffffffff1614611b9d576040517f08c379a0000000000000000000000000000000000000000000000000000000008152600401611b949061271c565b60405180910390fd5b60005b82829050811015611d13576005838383818110611be6577f4e487b7100000000000000000000000000000000000000000000000000000000600052603260045260246000fd5b9050602002016020810190611bfb91906121d3565b9080600181540180825580915050600190039060005260206000200160009091909190916101000a81548173ffffffffffffffffffffffffffffffffffffffff021916908373ffffffffffffffffffffffffffffffffffffffff160217905550600160066000858585818110611c9a577f4e487b7100000000000000000000000000000000000000000000000000000000600052603260045260246000fd5b9050602002016020810190611caf91906121d3565b73ffffffffffffffffffffffffffffffffffffffff1673ffffffffffffffffffffffffffffffffffffffff16815260200190815260200160002060006101000a81548160ff0219169083151502179055508080611d0b90612bff565b915050611ba0565b505050565b600b6020528060005260406000206000915090505481565b600c8181548110611d4057600080fd5b90600052602060002090600302016000915090508060000160009054906101000a900473ffffffffffffffffffffffffffffffffffffffff16908060010154908060020160009054906101000a900473ffffffffffffffffffffffffffffffffffffffff16908060020160149054906101000a900460ff16905084565b600a6020528060005260406000206000915090508060000154908060010154908060020154908060030154905084565b6000600a60008373ffffffffffffffffffffffffffffffffffffffff1673ffffffffffffffffffffffffffffffffffffffff1681526020019081526020016000206040518060800160405290816000820154815260200160018201548152602001600282015481526020016003820154815250509050600081600001511115611fb4578060000151600b60008473ffffffffffffffffffffffffffffffffffffffff1673ffffffffffffffffffffffffffffffffffffffff1681526020019081526020016000206000828254611ec39190612996565b925050819055508060200151600b60008473ffffffffffffffffffffffffffffffffffffffff1673ffffffffffffffffffffffffffffffffffffffff1681526020019081526020016000206000828254611f1d9190612a80565b9250508190555060405180608001604052806000815260200160008152602001600081526020016000815250600a60008473ffffffffffffffffffffffffffffffffffffffff1673ffffffffffffffffffffffffffffffffffffffff168152602001908152602001600020600082015181600001556020820151816001015560408201518160020155606082015181600301559050505b5050565b828054611fc490612bcd565b90600052602060002090601f016020900481019282611fe6576000855561202d565b82601f10611fff57805160ff191683800117855561202d565b8280016001018555821561202d579182015b8281111561202c578251825591602001919060010190612011565b5b50905061203a9190612062565b5090565b508054600082556003029060005260206000209081019061205f919061207f565b50565b5b8082111561207b576000816000905550600101612063565b5090565b5b808211156120fc57600080820160006101000a81549073ffffffffffffffffffffffffffffffffffffffff021916905560018201600090556002820160006101000a81549073ffffffffffffffffffffffffffffffffffffffff02191690556002820160146101000a81549060ff021916905550600301612080565b5090565b60008135905061210f81612e9a565b92915050565b60008083601f84011261212757600080fd5b8235905067ffffffffffffffff81111561214057600080fd5b60208301915083602082028301111561215857600080fd5b9250929050565b60008135905061216e81612eb1565b92915050565b60008083601f84011261218657600080fd5b8235905067ffffffffffffffff81111561219f57600080fd5b6020830191508360018202830111156121b757600080fd5b9250929050565b6000813590506121cd81612ec8565b92915050565b6000602082840312156121e557600080fd5b60006121f384828501612100565b91505092915050565b6000806000806060858703121561221257600080fd5b600061222087828801612100565b94505060206122318782880161215f565b935050604085013567ffffffffffffffff81111561224e57600080fd5b61225a87828801612174565b925092505092959194509250565b6000806040838503121561227b57600080fd5b600061228985828601612100565b925050602061229a858286016121be565b9150509250929050565b600080602083850312156122b757600080fd5b600083013567ffffffffffffffff8111156122d157600080fd5b6122dd85828601612115565b92509250509250929050565b6000602082840312156122fb57600080fd5b6000612309848285016121be565b91505092915050565b600061231e838361256a565b60808301905092915050565b61233381612b48565b82525050565b61234281612b48565b82525050565b600061235382612951565b61235d8185612974565b935061236883612941565b8060005b838110156123995781516123808882612312565b975061238b83612967565b92505060018101905061236c565b5085935050505092915050565b6123af81612b5a565b82525050565b6123be81612b5a565b82525050565b6123cd81612b66565b82525050565b60006123de8261295c565b6123e88185612985565b93506123f8818560208601612b9a565b61240181612cef565b840191505092915050565b6000612419600f83612985565b915061242482612d00565b602082019050919050565b600061243c600e83612985565b915061244782612d29565b602082019050919050565b600061245f600f83612985565b915061246a82612d52565b602082019050919050565b6000612482600c83612985565b915061248d82612d7b565b602082019050919050565b60006124a5600e83612985565b91506124b082612da4565b602082019050919050565b60006124c8600b83612985565b91506124d382612dcd565b602082019050919050565b60006124eb600c83612985565b91506124f682612df6565b602082019050919050565b600061250e601583612985565b915061251982612e1f565b602082019050919050565b6000612531600e83612985565b915061253c82612e48565b602082019050919050565b6000612554601283612985565b915061255f82612e71565b602082019050919050565b608082016000820151612580600085018261232a565b50602082015161259360208501826125bf565b5060408201516125a6604085018261232a565b5060608201516125b960608501826123a6565b50505050565b6125c881612b90565b82525050565b6125d781612b90565b82525050565b60006020820190506125f26000830184612339565b92915050565b600060408201905061260d6000830185612339565b61261a60208301846123c4565b9392505050565b60006060820190506126366000830186612339565b818103602083015261264881856123d3565b905061265760408301846123c4565b949350505050565b60006080820190506126746000830187612339565b61268160208301866125ce565b61268e6040830185612339565b61269b60608301846123b5565b95945050505050565b600060208201905081810360008301526126be8184612348565b905092915050565b60006020820190506126db60008301846123b5565b92915050565b60006020820190506126f660008301846123c4565b92915050565b600060208201905081810360008301526127158161240c565b9050919050565b600060208201905081810360008301526127358161242f565b9050919050565b6000602082019050818103600083015261275581612452565b9050919050565b6000602082019050818103600083015261277581612475565b9050919050565b6000602082019050818103600083015261279581612498565b9050919050565b600060208201905081810360008301526127b5816124bb565b9050919050565b600060208201905081810360008301526127d5816124de565b9050919050565b600060208201905081810360008301526127f581612501565b9050919050565b6000602082019050818103600083015261281581612524565b9050919050565b6000602082019050818103600083015261283581612547565b9050919050565b600060208201905061285160008301846125ce565b92915050565b600060408201905061286c60008301856125ce565b6128796020830184612339565b9392505050565b600060808201905061289560008301876125ce565b6128a26020830186612339565b6128af6040830185612339565b6128bc60608301846125ce565b95945050505050565b60006060820190506128da60008301866125ce565b6128e760208301856125ce565b6128f460408301846125ce565b949350505050565b600060808201905061291160008301876125ce565b61291e60208301866125ce565b61292b60408301856125ce565b61293860608301846125ce565b95945050505050565b6000819050602082019050919050565b600081519050919050565b600081519050919050565b6000602082019050919050565b600082825260208201905092915050565b600082825260208201905092915050565b60006129a182612b66565b91506129ac83612b66565b9250817f7fffffffffffffffffffffffffffffffffffffffffffffffffffffffffffffff038313600083121516156129e7576129e6612c91565b5b817f8000000000000000000000000000000000000000000000000000000000000000038312600083121615612a1f57612a1e612c91565b5b828201905092915050565b6000612a3582612b90565b9150612a4083612b90565b9250827fffffffffffffffffffffffffffffffffffffffffffffffffffffffffffffffff03821115612a7557612a74612c91565b5b828201905092915050565b6000612a8b82612b66565b9150612a9683612b66565b9250827f800000000000000000000000000000000000000000000000000000000000000001821260008412151615612ad157612ad0612c91565b5b827f7fffffffffffffffffffffffffffffffffffffffffffffffffffffffffffffff018213600084121615612b0957612b08612c91565b5b828203905092915050565b6000612b1f82612b90565b9150612b2a83612b90565b925082821015612b3d57612b3c612c91565b5b828203905092915050565b6000612b5382612b70565b9050919050565b60008115159050919050565b6000819050919050565b600073ffffffffffffffffffffffffffffffffffffffff82169050919050565b6000819050919050565b60005b83811015612bb8578082015181840152602081019050612b9d565b83811115612bc7576000848401525b50505050565b60006002820490506001821680612be557607f821691505b60208210811415612bf957612bf8612cc0565b5b50919050565b6000612c0a82612b90565b91507fffffffffffffffffffffffffffffffffffffffffffffffffffffffffffffffff821415612c3d57612c3c612c91565b5b600182019050919050565b6000612c5382612b66565b91507f8000000000000000000000000000000000000000000000000000000000000000821415612c8657612c85612c91565b5b816000039050919050565b7f4e487b7100000000000000000000000000000000000000000000000000000000600052601160045260246000fd5b7f4e487b7100000000000000000000000000000000000000000000000000000000600052602260045260246000fd5b6000601f19601f8301169050919050565b7f4e6f74206f72646572206d616b65720000000000000000000000000000000000600082015250565b7f4f6e6c7920676f7665726e657221000000000000000000000000000000000000600082015250565b7f4e656761746976652071756f7461210000000000000000000000000000000000600082015250565b7f4578636565642071756f74610000000000000000000000000000000000000000600082015250565b7f496e646578206f766572666c6f77000000000000000000000000000000000000600082015250565b7f4e6f74206f6e2073616c65000000000000000000000000000000000000000000600082015250565b7f4f6e6c7920697373756572210000000000000000000000000000000000000000600082015250565b7f43616e6e6f74206d616b652032206f7264657273210000000000000000000000600082015250565b7f45786365656420636c61696d6564000000000000000000000000000000000000600082015250565b7f45786365656420746f74616c537570706c790000000000000000000000000000600082015250565b612ea381612b48565b8114612eae57600080fd5b50565b612eba81612b66565b8114612ec557600080fd5b50565b612ed181612b90565b8114612edc57600080fd5b5056fea264697066735822122011f89ca5b1f5f40a3abf01c0f53fc79803e29dbc9e2b0a4b52f3e2c3b550e59664736f6c63430008030033",
  "linkReferences": {},
  "deployedLinkReferences": {}
}